S0190000427574746F6E5F496E74657272757074322E7372656331
S113000045C0000094C000005EC000005CC0000059
S11300105AC00000A3C0000056C0000054C0000035
S113002052C0000050C000004EC000004CC0000090
S11300304AC0000048C0000046C0000044C00000A0
S113004042C0000040C000003EC000003CC00000B0
S11300503AC0000038C0000036C0000034C00000C0
S113006032C0000030C000002EC000002CC00000D0
S11300702AC0000028C0000026C0000024C00000E0
S113008022C0000020C000001EC0000011241FBEBA
S1130090CFEFD0E1DEBFCDBF11E0A0E0B1E0E8EBEF
S11300A0F1E000E00BBF02C007900D92A231B1074E
S11300B0D9F721E0A2E1B1E001C01D92A431B20759
S11300C0E1F763D077C09CCF3DEC839F312D1124A1
S11300D0369536953695232F220F922F990F990F27
S11300E0920F482F491B80E090E01DC0A5E6B0E0C8
S11300F02BE02C93E32FF0E0E050FF4F208128BB4E
S1130100E6E6FEE03197F1F7000027E02C93E42FB8
S1130110F0E0E050FF4F208128BBE6E6FEE0319797
S1130120F1F7000001968E31910504F308951F92B2
S11301300F920FB60F9211248F939F938091120107
S113014090911301019690931301809312019F9152
S11301508F910F900FBE0F901F9018951F920F92C2
S11301600FB60F9211248F939F9380911201909157
S11301701301019790931301809312019F918F9122
S11301800F900FBE0F901F9018958FEF87BB8FE0D5
S11301908093640011BA81E189BFEAE6F0E08081CE
S11301A0826080838AB782608ABF789480911201CA
S10B01B08BDFFCCFF894FFCFB4
S11301B83F065B4F666D7D077F6F777C395E79718B
S10501C80880A9
S9030000FC
