S016000054696D65725F436F756E746572322E737265639C
S113000045C0000060C000005EC000005CC000008D
S11300105AC0000058C0000056C0000054C0000080
S113002052C00000A2C000004EC000004CC000003E
S11300304AC0000048C0000046C0000044C00000A0
S113004042C0000040C000003EC000003CC00000B0
S11300503AC0000038C0000036C0000034C00000C0
S113006032C0000030C000002EC000002CC00000D0
S11300702AC0000028C0000026C0000024C00000E0
S113008022C0000020C000001EC0000011241FBEBA
S1130090CFEFD0E1DEBFCDBF11E0A0E0B1E0ECE2F4
S11300A0F2E000E00BBF02C007900D92A231B1074D
S11300B0D9F721E0A2E1B1E001C01D92A631B20757
S11300C0E1F76ED0B1C09CCF0F931F93CF93DF9312
S11300D090E068EE73E081D08B0164E670E07DD03F
S11300E0EB016AE070E079D020E030E036C04EE009
S11300F045BBF801FF27E050FF4F40814BBBE6E6CC
S1130100FEE03197F1F700004DE045BBFE01FF270B
S1130110E050FF4F40814BBBE6E6FEE03197F1F73C
S113012000004BE045BBFB01FF27E050FF4F40813F
S11301304BBBE6E6FEE03197F1F7000047E045BB34
S1130140FC01FF27E050FF4F40814BBBE6E6FEE099
S11301503197F1F700002F5F3F4F2E3131053CF20C
S1130160DF91CF911F910F9108951F920F920FB6B7
S11301700F9211248F939F931092150110921401E2
S11301808091120190911301019690931301809331
S113019012019F918F910F900FBE0F901F90189591
S11301A08FEF8ABB9FE094BB20E827BB8BBB95BB3A
S11301B018BA95B5956095BD95B5986095BD95B5FA
S11301C0906195BD83BD87B7826087BF8FE881BF8B
S11301D078948091120178DFFCCF97FB072E16F4F8
S11301E0009406D077FD08D00BD007FC05D03EF470
S11301F0909581959F4F0895709561957F4F0895CF
S1130200AA1BBB1B51E107C0AA1FBB1FA617B70738
S113021010F0A61BB70B881F991F5A95A9F7809554
S10F02209095BC01CD010895F894FFCF27
S113022C3F065B4F666D7D077F6F777C395E797116
S105023C088034
S9030000FC
